00                                                   1150520121000132CAMARA MUNICIPAL DE OSASCO    PAULO SINIAUSKAS    AV AUTONOMISTAS 2607                              CENTRO              06090905OSASCO              SP001136525566paulo.siniauskas@osasco.sp.leg.br                           20190311511        1               110812380000112                  *
10150520121000132000000000000000000000000000000000000CAMARA MUNICIPAL DE OSASCO              AV AUTONOMISTAS 2607                              CENTRO              06090905OSASCO              SP001136999133N8411600N200158200002402     000000000000000000000000101750000000000000000000000000000000                000000000000000000000000000000000000000000000    *
30150520121000132               100583849920101200119ANTONIO APARECIDO TONIOLO                                                 0010002                    1411195301111000000001503176000000000000000    000000000000000000000000000000000000000000000000000000000000                                                                                                  *
30150520121000132               100583874281402201920CLAUDIO BEZERRA DE SOUZA                                                  0044806                    1702195201421000000000548813000000000000000    000000000000000000000000000000000000000000000000000000000000                                                                                                  *
30150520121000132               100657394070506201720HELIO TAMARO FILHO                                                        0044653                    1508195304110000000000565058000000000000000    000000000000000000000000000000000000000000000000000000000000                                                                                                  *
30150520121000132               100664104760101200119JAIR ASSAF                                                                0010038                    2102194301111000000001503176000000000000000    000000000000000000000000000000000000000000000000000000000000                                                                                                  *
30150520121000132               101093791411008201720PAULO SINIAUSKAS                                                          0044701                    1712196301422000000000832367000000000000000    000000000000000000000000000000000000000000000000000000000000                                                                                                  *
30150520121000132               101179805840506201720ESTELA CATARINA GONCALVES FERREIRA                                        0044563                    2005196201421000000000631135000000000000000    000000000000000000000000000000000000000000000000000000000000                                                                                                  *
30150520121000132               101179872870506201720VERA LUCIA DE MATTOS                                                      0044597                    2009195904110000000000667796000000000000000    000000000000000000000000000000000000000000000000000000000000                                                                                                  *
30150520121000132               102875127190506201720MIGUEL SEVERINO ALVES                                                     0044670                    0810195004110000000000513689000000000000000    000000000000000000000000000000000000000000000000000000000000                                                                                                  *
30150520121000132               102904796701610201720FRANCISCO LEITE DE ARAUJO                                                 0044727                    2307194604110000000000642111000000000000000    000000000000000000000000000000000000000000000000000000000000                                                                                                  *
30150520121000132               103887927170506201720HILMA DA SILVA                                                            0044628                    1308195501421000000000454419000000000000000    000000000000000000000000000000000000000000000000000000000000                                                                                                  *
30150520121000132               104112352460308201720JOSE CARLOS DOS SANTOS                                                    0044700                    1903194601421000000000631135000000000000000    000000000000000000000000000000000000000000000000000000000000                                                                                                  *
30150520121000132               104184782681406201720JOSE ROBERTO CAVICHIOLLI                                                  0044683                    0507194304110000000000702042000000000000000    000000000000000000000000000000000000000000000000000000000000                                                                                                  *
30150520121000132               104212015731701201920ELIFAS SILVEIRA                                                           0044799                    0502195304110000000000565058000000000000000    000000000000000000000000000000000000000000000000000000000000                                                                                                  *
30150520121000132               104276927220101200119MARIO LUIZ GUIDE                                                          0010029                    0412195201111000000001503176000000000000000    000000000000000000000000000000000000000000000000000000000000                                                                                                  *
30150520121000132               104291947621708201820MARIO SADAO CHIBA                                                         0044774                    2603195701421000000000576254000000000000000    000000000000000000000000000000000000000000000000000000000000                                                                                                  *
30150520121000132               104351099920506201720WAGNER BARREIROS                                                          0044575                    1203195704110000000000373082000000000000000    000000000000000000000000000000000000000000000000000000000000                                                                                                  *
30150520121000132               104362913790112201720ROBERTO DELPHINO JUNIOR                                                   0044732                    1006195401114000000001878273000000000000000    000000000000000000000000000000000000000000000000000000000000                                                                                                  *
30150520121000132               105517763980208201720MARIA JOSE DA SILVA CRUZ                                                  0044695                    0408195404101000000001067186000000000000000    000000000000000000000000000000000000000000000000000000000000                                                                                                  *
30150520121000132               105519698970101201720REGINALDO OLIVEIRA DE ALMEIDA                                             0010101                    1111195601111000000001503176000000000000000    000000000000000000000000000000000000000000000000000000000000                                                                                                  *
30150520121000132               105530988770506201720CARLOS ALBERTO BABA                                                       0044562                    2505195804101000000000804964000000000000000    000000000000000000000000000000000000000000000000000000000000                                                                                                  *
30150520121000132               105553704260506201720FRANCINO BARBOSA DE SOUSA                                                 0044554                    1304195404110000000000750364000000000000000    000000000000000000000000000000000000000000000000000000000000                                                                                                  *
30150520121000132               106119603780305201820VERONICA DUQUE ZUZA                                                       0044757                    0705195904110000000000356123000000000000000    000000000000000000000000000000000000000000000000000000000000                                                                                                  *
30150520121000132               106736390420506201720APARECIDO MARTINS MORAES                                                  0044569                    1505195701421000000000445198000000000000000    000000000000000000000000000000000000000000000000000000000000                                                                                                  *
30150520121000132               106942711252209201720JOAO PEREIRA LIMA                                                         0044719                    1403195201421000000000395147000000000000000    000000000000000000000000000000000000000000000000000000000000                                                                                                  *
30150520121000132               107161662210506201720DONISETE DE MOURA PEREIRA                                                 0044535                    1105195704101000000001036695000000000000000    000000000000000000000000000000000000000000000000000000000000                                                                                                  *
30150520121000132               107171371790409201720NEUZA VALQUIRIA DE OLIVEIRA                                               0044716                    1206195704101000000000731785000000000000000    000000000000000000000000000000000000000000000000000000000000                                                                                                  *
30150520121000132               107358931680101201719SEVERINO TINHA DI FERREIRA DOS SANTOS                                     0010109                    0406196101111000000001503176000000000000000    000000000000000000000000000000000000000000000000000000000000                                                                                                  *
30150520121000132               107597127160506201720DANIEL DA SILVA LOPES                                                     0044572                    0203196304110000000000513689000000000000000    000000000000000000000000000000000000000000000000000000000000                                                                                                  *
30150520121000132               107599894671805201820IVANILDA DINIZ LIMA                                                       0044760                    0310196004110000000000373082000000000000000    000000000000000000000000000000000000000000000000000000000000                                                                                                  *
30150520121000132               107699325652203201920ROBSON FERREIRA DE TOLEDO                                                 0044815                    2304196304110000000000111958000000000000000    000000000000000000000000000000000000000000000000000000000000                                                                                                  *
30150520121000132               107870750590506201720WAGNER JOSE DO NASCIMENTO                                                 0044598                    2202196004110000000000727726000000000000000    000000000000000000000000000000000000000000000000000000000000                                                                                                  *
30150520121000132               108535534640506201720MANOEL FERREIRA GONCALVES                                                 0044595                    1109196104110000000000339165000000000000000    000000000000000000000000000000000000000000000000000000000000                                                                                                  *
30150520121000132               108638967200903201820EDIVALDO SOUZA DE MIRANDA                                                 0044746                    1008195504110000000000373082000000000000000    000000000000000000000000000000000000000000000000000000000000                                                                                                  *
30150520121000132               108710069680208201720NELCI CORREA GROFF                                                        0044694                    2902196401421000000000800352000000000000000    000000000000000000000000000000000000000000000000000000000000                                                                                                  *
30150520121000132               108813833571406201720ISMAEL ALVES DOS SANTOS                                                   0044684                    2704195904110000000000513689000000000000000    000000000000000000000000000000000000000000000000000000000000                                                                                                  *
30150520121000132               108904535590506201720MIRIAM LOPES ESCANE                                                       0044622                    1505196501421000000000434662000000000000000    000000000000000000000000000000000000000000000000000000000000                                                                                                  *
30150520121000132               108976530140506201720CLAUDIONOR SILVA SANTOS                                                   0044571                    0709196004110000000000565057000000000000000    000000000000000000000000000000000000000000000000000000000000                                                                                                  *
30150520121000132               120098249640806201720EDMAEL PEREIRA DE OLIVEIRA                                                0044680                    1312196504110000000000513689000000000000000    000000000000000000000000000000000000000000000000000000000000                                                                                                  *
30150520121000132               120383364091202201920BENJAMIM RAMOS JUNIOR                                                     0044804                    2609196602410000000001545454000000000000000    000000000000000000000000000000000000000000000000000000000000                                                                                                  *
30150520121000132               120466573242510201820EDUARDO ARCANJO DE ALMEIDA                                                0044785                    0712196104110000000000539373000000000000000    000000000000000000000000000000000000000000000000000000000000                                                                                                  *
30150520121000132               120598447210506201720LEOVIL DE SOUZA BARBOSA JUNIOR                                            0044566                    1610196104110000000000779096000000000000000    000000000000000000000000000000000000000000000000000000000000                                                                                                  *
30150520121000132               120683727050506201720EDMIR RIBEIRO DE OLIVEIRA                                                 0044643                    0908196601421000000000548813000000000000000    000000000000000000000000000000000000000000000000000000000000                                                                                                  *
30150520121000132               120842721910806201720JURANDYR DE OLIVEIRA FRANCISCO                                            0044672                    0502196604110000000000539373000000000000000    000000000000000000000000000000000000000000000000000000000000                                                                                                  *
30150520121000132               120866415340101201720VALDENIR LUIZ DE FRANCA                                                   0010105                    1703196701111000000001503176000000000000000    000000000000000000000000000000000000000000000000000000000000                                                                                                  *
30150520121000132               120871051720506201720DAVI ANTONIO DOS SANTOS                                                   0044579                    0401196804110000000000513689000000000000000    000000000000000000000000000000000000000000000000000000000000                                                                                                  *
30150520121000132               121253593770811201820TEREZINHA MARIA DOS SANTOS SILVA                                          0044789                    1505196504110000000000719165000000000000000    000000000000000000000000000000000000000000000000000000000000                                                                                                  *
30150520121000132               121255791482310201820MARIA DE FATIMA ALVES DE CARVALHO                                         0044780                    3005196904110000000000513689000000000000000    000000000000000000000000000000000000000000000000000000000000                                                                                                  *
30150520121000132               121263925720506201720MARCOS ANTONIO ROQUE                                                      0044533                    0807196704110000000000513689000000000000000    000000000000000000000000000000000000000000000000000000000000                                                                                                  *
30150520121000132               122165586072205201720ANANIAS ALVES DE SANTANA                                                  0044523                    1812196701421000000000373194000000000000000    000000000000000000000000000000000000000000000000000000000000                                                                                                  *
30150520121000132               122229420300406201820JOSE WILLAME CAVALCANTE DE SOUZA                                          0044763                    2409196801421000000000603694000000000000000    000000000000000000000000000000000000000000000000000000000000                                                                                                  *
30150520121000132               122264844870506201720ELIANA GOMES VIEIRA                                                       0044651                    1611196804110000000000539373000000000000000    000000000000000000000000000000000000000000000000000000000000                                                                                                  *
30150520121000132               122442974800506201720MARIA APARECIDA DA LOMBA SENA                                             0044567                    2510196804110000000000539374000000000000000    000000000000000000000000000000000000000000000000000000000000                                                                                                  *
30150520121000132               122525431420504201819ANA PAULA ROSSI DE ALMEIDA MAGDESIAN                                      0010110                    0903196901111000000001503176000000000000000    000000000000000000000000000000000000000000000000000000000000                                                                                                  *
30150520121000132               122525654560506201720MARCIO ALVES DOS SANTOS                                                   0044613                    2312197104110000000000513689000000000000000    000000000000000000000000000000000000000000000000000000000000                                                                                                  *
30150520121000132               122799022750101200919CLAUDIO HENRIQUE DA SILVA                                                 0010063                    2610197201111000000001503176000000000000000    000000000000000000000000000000000000000000000000000000000000                                                                                                  *
30150520121000132               122931669631512201620PAULO CESAR DIAS DOS REIS                                                 0010096                    1101197201111000000001503176000000000000000    000000000000000000000000000000000000000000000000000000000000                                                                                                  *
30150520121000132               122978594080506201720MARCIO DE SIQUEIRA E SILVA                                                0044596                    0304197204101000000000804964000000000000000    000000000000000000000000000000000000000000000000000000000000                                                                                                  *
30150520121000132               122981048180506201720EDNEI ALVES MARTINS                                                       0044542                    1601197101421000000000548813000000000000000    000000000000000000000000000000000000000000000000000000000000                                                                                                  *
30150520121000132               123410241321607201820GISELI ESTEVES                                                            0044767                    2706197304110000000000616427000000000000000    000000000000000000000000000000000000000000000000000000000000                                                                                                  *
30150520121000132               123449622300506201720ADRIANO DE ASSUNCAO                                                       0044591                    0403197401421000000000414905000000000000000    000000000000000000000000000000000000000000000000000000000000                                                                                                  *
30150520121000132               123579799190101201720JOSE ROGERIO SOARES DOS SANTOS                                            0010103                    2610197201111000000001503176000000000000000    000000000000000000000000000000000000000000000000000000000000                                                                                                  *
30150520121000132               123727831912508201720VALTER FERREIRA                                                           0044713                    3003197304110000000000356123000000000000000    000000000000000000000000000000000000000000000000000000000000                                                                                                  *
30150520121000132               123831496261210201820MARCIA DOS SANTOS LIMA                                                    0044776                    2206197304101000000000731785000000000000000    000000000000000000000000000000000000000000000000000000000000                                                                                                  *
30150520121000132               123833633771512201620FRANCISCA JENILUCIA RIBEIRO DE ANDRADE                                    0010088                    2110197301111000000001503176000000000000000    000000000000000000000000000000000000000000000000000000000000                                                                                                  *
30150520121000132               123882113892102201920JOSE PESCI DE CASTRO LOPES                                                0044807                    2205196404110000000000339165000000000000000    000000000000000000000000000000000000000000000000000000000000                                                                                                  *
30150520121000132               123910542720506201720LUIZ ANTONIO TORQUATO                                                     0044655                    1406197304110000000000395693000000000000000    000000000000000000000000000000000000000000000000000000000000                                                                                                  *
30150520121000132               123922511440506201720ROBSON DE PAULA SILVA                                                     0044606                    0302197301421000000000414904000000000000000    000000000000000000000000000000000000000000000000000000000000                                                                                                  *
30150520121000132               123977331710801201920ROSIVALDO PEREIRA DA SILVA                                                0044798                    1811197301421000000000414904000000000000000    000000000000000000000000000000000000000000000000000000000000                                                                                                  *
30150520121000132               124094886190801201920EDSON APARECIDO SANTANA                                                   0044797                    0501197404110000000000339165000000000000000    000000000000000000000000000000000000000000000000000000000000                                                                                                  *
30150520121000132               124263994240101201719RIBAMAR ANTONIO DA SILVA                                                  0010108                    2705197501111000000001503176000000000000000    000000000000000000000000000000000000000000000000000000000000                                                                                                  *
30150520121000132               124270907450101201319ALEX SANDRO DE SOUZA SA                                                   0010074                    3012197101111000000001503176000000000000000    000000000000000000000000000000000000000000000000000000000000                                                                                                  *
30150520121000132               124389019280103201920MARCELO LUIS DE ALMEIDA                                                   0044808                    1403197601421000000000395147000000000000000    000000000000000000000000000000000000000000000000000000000000                                                                                                  *
30150520121000132               124546392800506201720MARIA ADRIANA DA SILVA SANTOS                                             0044616                    0602197501421000000000414904000000000000000    000000000000000000000000000000000000000000000000000000000000                                                                                                  *
30150520121000132               124578862540101201720DANIEL MATIAS DA SILVA                                                    0010104                    1108197501111000000001503176000000000000000    000000000000000000000000000000000000000000000000000000000000                                                                                                  *
30150520121000132               124632336232206201720FRANCISCA LUCIA FERNANDES CARNEIRO                                        0044689                    2711197201421000000000414904000000000000000    000000000000000000000000000000000000000000000000000000000000                                                                                                  *
30150520121000132               124648786441911201820CRISTIANE MARCANTONIO FERRARO                                             0044791                    0410197604110000000000339165000000000000000  01000000000000000000000000000000000000000000000000000000000000                                                                                                  *
30150520121000132               124661392370506201720EDIMILSON BEZERRA DE LIMA                                                 0044590                    0202197304101000000000731785000000000000000    000000000000000000000000000000000000000000000000000000000000                                                                                                  *
30150520121000132               124672154251008201820ROGERIO RODRIGUES SANTOS                                                  0044772                    1207197101421000000000548813000000000000000    000000000000000000000000000000000000000000000000000000000000                                                                                                  *
30150520121000132               124694359290506201720ANA NERI PEREIRA DOS SANTOS LIMA                                          0044634                    0603196504110000000000463526000000000000000    000000000000000000000000000000000000000000000000000000000000                                                                                                  *
30150520121000132               124699256590506201720CELI CAMPOS                                                               0044626                    0309196404110000000000565057000000000000000    000000000000000000000000000000000000000000000000000000000000                                                                                                  *
30150520121000132               124977716872304201820MARCOS ANTONIO ROGRIGUES                                                  0044755                    1304197804110000000000356123000000000000000    000000000000000000000000000000000000000000000000000000000000                                                                                                  *
30150520121000132               125149479380506201720VALDENIR DO SACRAMENTO NOVAES                                             0044587                    1609197504110000000000513689000000000000000    000000000000000000000000000000000000000000000000000000000000                                                                                                  *
30150520121000132               125158607471801201920RITA DE CASSIA ARAUJO CRUZ                                                0044801                    2908196504101000000000922004000000000000000    000000000000000000000000000000000000000000000000000000000000                                                                                                  *
30150520121000132               125158783440111201820FRANCISCO IVAN FEITOSA                                                    0044787                    2407197804110000000000513689000000000000000    000000000000000000000000000000000000000000000000000000000000                                                                                                  *
30150520121000132               125158792860506201720ROBSON JOAO MAGALHAES MENEZES                                             0044648                    2406197804110000000000513689000000000000000    000000000000000000000000000000000000000000000000000000000000                                                                                                  *
30150520121000132               125204571490506201720KELI CRISTINA ALEGRE SPINA                                                0044654                    1412197704101000000000804964000000000000000    000000000000000000000000000000000000000000000000000000000000                                                                                                  *
30150520121000132               125388712650506201720SIDNEI ROBERTO DOS SANTOS                                                 0044607                    2601196904110000000000356123000000000000000    000000000000000000000000000000000000000000000000000000000000                                                                                                  *
30150520121000132               125389800480506201720FLAVIA PATRICIA HAIDAR DE LIMA PIVATTO                                    0044580                    0309197304110000000000339165000000000000000    000000000000000000000000000000000000000000000000000000000000                                                                                                  *
30150520121000132               125392129070506201720DIOGENES DE ANDRADE SALES                                                 0044669                    3010197401421000000000548813000000000000000    000000000000000000000000000000000000000000000000000000000000                                                                                                  *
30150520121000132               125552283240101201720JEFERSON RICARDO DA SILVA                                                 0010102                    1312197801111000000001503176000000000000000    000000000000000000000000000000000000000000000000000000000000                                                                                                  *
30150520121000132               125658308920506201720FERNANDA DA SILVA CRUZ                                                    0044553                    3108197701421000000000434662000000000000000    000000000000000000000000000000000000000000000000000000000000                                                                                                  *
30150520121000132               125682398180506201720ALEXANDRE DE ALMEIDA                                                      0044633                    2905197901421000000000576254000000000000000    000000000000000000000000000000000000000000000000000000000000                                                                                                  *
30150520121000132               125906387700701201920RENATA DE CAMARGO RODRIGUES                                               0044792                    0911197804110000000000513689000000000000000    000000000000000000000000000000000000000000000000000000000000                                                                                                  *
30150520121000132               126592508140101201319FRANCISCO DE PAULA DE OLIVEIRA LEITE                                      0010078                    1208197901111000000001503176000000000000000    000000000000000000000000000000000000000000000000000000000000                                                                                                  *
30150520121000132               126786209312311201820CLEDISON DE NOVAES OLIVEIRA                                               0044795                    1202198304110000000000356123000000000000000    000000000000000000000000000000000000000000000000000000000000                                                                                                  *
30150520121000132               126812228950506201720DANIEL OLIVEIRA DAS NEVES                                                 0044593                    0905197904110000000000565058000000000000000    000000000000000000000000000000000000000000000000000000000000                                                                                                  *
30150520121000132               127062238570506201720ANDERSON ALVES DE PAULA                                                   0044577                    1506198104110000000000461003000000000000000    000000000000000000000000000000000000000000000000000000000000                                                                                                  *
30150520121000132               127189649381311201820DANUZIA VIEIRA MACENA                                                     0044788                    0407198001421000000000373194000000000000000    000000000000000000000000000000000000000000000000000000000000                                                                                                  *
30150520121000132               127206099370506201720GILBERTO APARECIDO DA SILVA                                               0044581                    2305197804110000000000513689000000000000000    000000000000000000000000000000000000000000000000000000000000                                                                                                  *
30150520121000132               127281802201105201720RAFAEL RAMOS FEIJO MUNHOZ                                                 0044531                    1403198101114000000001475206000000000000000    000000000000000000000000000000000000000000000000000000000000                                                                                                  *
30150520121000132               127283059370101200919JOSIAS NASCIMENTO DE JESUS                                                0010064                    1702197701111000000001503176000000000000000    000000000000000000000000000000000000000000000000000000000000                                                                                                  *
30150520121000132               127319308550506201720MARLENE MOTA DE JESUS SOUZA                                               0044550                    0703197701421000000000548813000000000000000    000000000000000000000000000000000000000000000000000000000000                                                                                                  *
30150520121000132               127541108970307201720ALEX SIMPLICIO DE JESUS                                                   0044692                    0304197804110000000000513689000000000000000    000000000000000000000000000000000000000000000000000000000000                                                                                                  *
30150520121000132               128080078192208201720WAGNER CALDEIRA                                                           0044707                    0412197704110000000000513689000000000000000    000000000000000000000000000000000000000000000000000000000000                                                                                                  *
30150520121000132               128100847790506201720JOSIMAR ANTONIO DA SILVA                                                  0044604                    0912197904110000000000539373000000000000000    000000000000000000000000000000000000000000000000000000000000                                                                                                  *
30150520121000132               128672759992401201920RUBIVAL BISPO DE SOUZA                                                    0044802                    2710197104101000000000731785000000000000000    000000000000000000000000000000000000000000000000000000000000                                                                                                  *
30150520121000132               128772987702111201720ALESSANDRO DA SILVA EVARISTO                                              0044731                    2606198004110000000000513689000000000000000    000000000000000000000000000000000000000000000000000000000000                                                                                                  *
30150520121000132               128969948170506201720FABRICIO CARLOS DOS SANTOS                                                0044609                    1701197901421000000000395147000000000000000    000000000000000000000000000000000000000000000000000000000000                                                                                                  *
30150520121000132               129212739360506201720FABIO PRATES ROVIDA                                                       0044644                    0402198404101000000000731785000000000000000    000000000000000000000000000000000000000000000000000000000000                                                                                                  *
30150520121000132               129665748110204201820MEIRILANY BORGES DA SILVA                                                 0044749                    2105198201423000000000548813000000000000000    000000000000000000000000000000000000000000000000000000000000                                                                                                  *
30150520121000132               129751688120910201820EDUARDO DA SILVA LIMA NETO                                                0044777                    3108198201421000000000548813000000000000000    000000000000000000000000000000000000000000000000000000000000                                                                                                  *
30150520121000132               129839679310506201720PAULO ROBERTO DA SILVA                                                    0044647                    2804198204110000000000513689000000000000000    000000000000000000000000000000000000000000000000000000000000                                                                                                  *
30150520121000132               130231898960506201720MIRAEL RODRIGUES DA SILVA                                                 0044605                    0807198004101000000000768375000000000000000    000000000000000000000000000000000000000000000000000000000000                                                                                                  *
30150520121000132               130527026440506201720MICHELE PEREIRA DOS SANTOS LIMA                                           0044639                    2609198604110000000000513689000000000000000    000000000000000000000000000000000000000000000000000000000000                                                                                                  *
30150520121000132               130581399840208201720EDLAINE DE OLIVEIRA                                                       0044696                    0611198404110000000000513689000000000000000    000000000000000000000000000000000000000000000000000000000000                                                                                                  *
30150520121000132               130633928970506201720SANDRA POLIDO                                                             0044544                    0103198204110000000000339165000000000000000    000000000000000000000000000000000000000000000000000000000000                                                                                                  *
30150520121000132               130641187721906201720FABIANO SIMAO DE OLIVEIRA                                                 0044687                    1805198204110000000000339165000000000000000    000000000000000000000000000000000000000000000000000000000000                                                                                                  *
30150520121000132               130739259361610201820ADRIANO FERREIRA DA SILVA                                                 0044778                    2803198201421000000000373194000000000000000    000000000000000000000000000000000000000000000000000000000000                                                                                                  *
30150520121000132               131215407760506201720EDUARDO RODRIGUES DE FREITAS                                              0044601                    0604198401421000000000548813000000000000000    000000000000000000000000000000000000000000000000000000000000                                                                                                  *
30150520121000132               131264848150506201720JOSE ELISON DE LIMA                                                       0044543                    1606198301421000000000395147000000000000000    000000000000000000000000000000000000000000000000000000000000                                                                                                  *
30150520121000132               131374798182206201720TAIS SOARES CAVALCANTE PINTO                                              0044688                    1103198404110000000000452221000000000000000    000000000000000000000000000000000000000000000000000000000000                                                                                                  *
32150520121000132               131374798182206201720TAIS SOARES CAVALCANTE PINTO                                          Q110092018                                                                                                                                                                                                                                  *
30150520121000132               131545717780506201720BRUNA MARIA ANTONIAZZI                                                    0044625                    1803198301421000000000548813000000000000000    000000000000000000000000000000000000000000000000000000000000                                                                                                  *
30150520121000132               131972718571801201920WESLEY CORREIA SAO BERNARDO                                               0044800                    1611198701421000000000373194000000000000000    000000000000000000000000000000000000000000000000000000000000                                                                                                  *
30150520121000132               132231668572311201820LEONARDO CORREA DE OLIVEIRA                                               0044793                    2402198401421000000000395147000000000000000    000000000000000000000000000000000000000000000000000000000000                                                                                                  *
30150520121000132               132258518160506201720ANDRE ROBERTO RAMOS DOS SANTOS                                            0044615                    1904198504101000000000853749000000000000000    000000000000000000000000000000000000000000000000000000000000                                                                                                  *
30150520121000132               132779558170506201720JAMILI ALVES COMIM DOS SANTOS                                             0044565                    1108198704110000000000356124000000000000000    000000000000000000000000000000000000000000000000000000000000                                                                                                  *
30150520121000132               132841348150506201720NATALIA DEMETRIO COSTA                                                    0044630                    1903198704101000000000731785000000000000000    000000000000000000000000000000000000000000000000000000000000                                                                                                  *
30150520121000132               132850868570506201720FRANCISCO DE ASSIS CASSIMIRO JUNIOR                                       0044541                    1110198004101000000000731785000000000000000    000000000000000000000000000000000000000000000000000000000000                                                                                                  *
30150520121000132               132864298980506201720CRISTIANE FREITAS DE BRITO                                                0044599                    2208198001421000000000576253000000000000000    000000000000000000000000000000000000000000000000000000000000                                                                                                  *
30150520121000132               133029528980506201720RODRIGO VICENTE DA SILVA                                                  0044649                    0502198604110000000000513689000000000000000    000000000000000000000000000000000000000000000000000000000000                                                                                                  *
30150520121000132               133311468102206201820MARIA DE FATIMA CONILHO                                                   0044766                    1505195404110000000000293943000000000084791    000000000000000000000000000000000000000084791000000000000000                                                                                                  *
32150520121000132               133311468102206201820MARIA DE FATIMA CONILHO                                               I126032019N                                                                                                                                                                                                                                 *
30150520121000132               133576598150906201720MAXIMILIAN CARDOSO HEVIA                                                  0044679                    0504198204110000000000513689000000000000000    000000000000000000000000000000000000000000000000000000000000                                                                                                  *
30150520121000132               133664249300510201720ANTONIO MARCIO DA COSTA                                                   0044722                    2008197904110000000000513689000000000000000    000000000000000000000000000000000000000000000000000000000000                                                                                                  *
30150520121000132               134064138960506201720FELIPE DE CASTRO GONCALVES GARRIDO RARIZ                                  0044564                    1004198701421000000000395147000000000000000    000000000000000000000000000000000000000000000000000000000000                                                                                                  *
30150520121000132               134187109390506201720KAOE GIRO FERRAZ GONCALVES                                                0044629                    1805198304110000000000513689000000000000000    000000000000000000000000000000000000000000000000000000000000                                                                                                  *
30150520121000132               134211228990801201820FERNANDA REGINA DE CAMARGO COSTA                                          0044796                    0104197804110000000000513689000000000000000    000000000000000000000000000000000000000000000000000000000000                                                                                                  *
30150520121000132               134690367710806201720ANDERSON VICENTE PEREIRA VELOSO                                           0044676                    3005198704101000000000731785000000000000000    000000000000000000000000000000000000000000000000000000000000                                                                                                  *
30150520121000132               134723339350308201720ELIANE APARECIDA PEREIRA SANTOS                                           0044699                    0602198604110000000000339165000000000000000    000000000000000000000000000000000000000000000000000000000000                                                                                                  *
30150520121000132               135192649340506201720AMANDA ARAUJO DELGADO                                                     0044618                    1006198704101000000000731785000000000000000    000000000000000000000000000000000000000000000000000000000000                                                                                                  *
30150520121000132               135430798150506201720FABIOLA ALVES VELOSO                                                      0044602                    1812198704110000000000513689000000000000000    000000000000000000000000000000000000000000000000000000000000                                                                                                  *
30150520121000132               135483219320510201720ERON DE PAULA RODRIGUES SILVA                                             0044721                    2202198304110000000000513689000000000000000    000000000000000000000000000000000000000000000000000000000000                                                                                                  *
30150520121000132               136643418122003201820RAMILDO ALVES DE ARRUDA                                                   0044748                    2401198204110000000000356123000000000000000    000000000000000000000000000000000000000000000000000000000000                                                                                                  *
30150520121000132               138572907722407201820LEONARDO LOPES VIEIRA                                                     0044770                    2802199301424000000000149278000000000062199    000000000000000000000000000000000000000062199000000000000000                                                                                                  *
32150520121000132               138572907722407201820LEONARDO LOPES VIEIRA                                                 I112032019N                                                                                                                                                                                                                                 *
30150520121000132               139012168110506201720JOAO HENRIQUE DE PIERI                                                    0044620                    2406198404110000000000513689000000000000000    000000000000000000000000000000000000000000000000000000000000                                                                                                  *
30150520121000132               139135218190101201720ELISSANDRO MARCIO SILVA LINDOSO                                           0010107                    2401197701111000000001503176000000000000000    000000000000000000000000000000000000000000000000000000000000                                                                                                  *
30150520121000132               145876939910602201920LAYNA VITORIA GONCALVES SILVA                                             0044805                    1803199904110000000000339165000000000000000    000000000000000000000000000000000000000000000000000000000000                                                                                                  *
30150520121000132               160127084840806201720AILTON DE SOUSA SILVA                                                     0044673                    2311198804110000000000513689000000000000000    000000000000000000000000000000000000000000000000000000000000                                                                                                  *
30150520121000132               160470889460703201920ANNA KAROLINE BEZERRA DE SOUSA RABELO                                     0044809                    2606199001421000000000298555000000000000000    000000000000000000000000000000000000000000000000000000000000                                                                                                  *
30150520121000132               161603230680803201920AGATHA ROCHA ANDRADE                                                      0044810                    1310199304110000000000393828000000000000000    000000000000000000000000000000000000000000000000000000000000                                                                                                  *
30150520121000132               161848390050506201720JOAO MESSIAS ROCHA NETO                                                   0044589                    1911198604110000000000513689000000000000000    000000000000000000000000000000000000000000000000000000000000                                                                                                  *
30150520121000132               163041617362103201920INGRID DA SILVA DE ALMEIDA                                                0044813                    2607198904110000000000113055000000000000000    000000000000000000000000000000000000000000000000000000000000                                                                                                  *
30150520121000132               164744326170906201720MARINA TAVARES DE MIRANDA PEAGNO                                          0044678                    1703199304110000000000513689000000000000000    000000000000000000000000000000000000000000000000000000000000                                                                                                  *
30150520121000132               170117768830101201720REGIA MARIA GOUVEIA SARMENTO                                              0010100                    1604196301111000000001503176000000000000000    000000000000000000000000000000000000000000000000000000000000                                                                                                  *
30150520121000132               170245005390911201720VAGNER BARBOSA LIMA                                                       0044728                    1201197104101000000000768374000000000000000    000000000000000000000000000000000000000000000000000000000000                                                                                                  *
30150520121000132               170317867950902201820MARIA CRISTINA VIEIRA                                                     0044742                    1111196501421000000000410513000000000000000    000000000000000000000000000000000000000000000000000000000000                                                                                                  *
30150520121000132               170585130640506201720ROSANGELA EVANGELISTA DE SOUZA SENA                                       0044656                    0202197601421000000000768339000000000000000    000000000000000000000000000000000000000000000000000000000000                                                                                                  *
30150520121000132               170724194870506201720JUCELITO JUNIO RIBEIRO                                                    0044637                    2104198104110000000000539373000000000000000    000000000000000000000000000000000000000000000000000000000000                                                                                                  *
30150520121000132               180007515480506201720FABIANA JOAQUIM DOS SANTOS                                                0044636                    0111197704101000000000731785000000000000000    000000000000000000000000000000000000000000000000000000000000                                                                                                  *
30150520121000132               180774809640506201720EVONEIDE MONTEIRO SALDANHA                                                0044573                    1004195804110000000000373082000000000000000    000000000000000000000000000000000000000000000000000000000000                                                                                                  *
30150520121000132               190002124400412201720CAIO SACHES ERDEBROK CAMARA                                               0044734                    2406197804110000000000539373000000000000000    000000000000000000000000000000000000000000000000000000000000                                                                                                  *
30150520121000132               190070734380506201720SORAIA CAMPOS OLIVEIRA                                                    0044574                    0104198304110000000000513689000000000000000    000000000000000000000000000000000000000000000000000000000000                                                                                                  *
30150520121000132               190110559882508201720SHIRLEI RODRIGUES DE ABREU                                                0044714                    2211197304110000000000539373000000000000000    000000000000000000000000000000000000000000000000000000000000                                                                                                  *
30150520121000132               190241410630101201720RALFI RAFAEL DA SILVA                                                     0010099                    1202198201111000000001503176000000000000000    000000000000000000000000000000000000000000000000000000000000                                                                                                  *
30150520121000132               190295396500506201720ALINE IZIDORO BARBOSA                                                     0044585                    0106198701421000000000576254000000000000000    000000000000000000000000000000000000000000000000000000000000                                                                                                  *
30150520121000132               190352650440506201720SARA REGINA RIBEIRO                                                       0044657                    1010197804110000000000565058000000000000000    000000000000000000000000000000000000000000000000000000000000                                                                                                  *
30150520121000132               190373191091506201720JOSE MATEUS DOS SANTOS                                                    0044686                    0809198704110000000000539373000000000000000    000000000000000000000000000000000000000000000000000000000000                                                                                                  *
30150520121000132               190399378610806201720WILLIAN GOMES DE SOUSA                                                    0044675                    2702198701421000000000395147000000000000000    000000000000000000000000000000000000000000000000000000000000                                                                                                  *
30150520121000132               190430857340305201820RODRIGO AMORIM DA LUZ                                                     0044758                    1708198404110000000000539373000000000000000    000000000000000000000000000000000000000000000000000000000000                                                                                                  *
30150520121000132               190472380390101201319BATISTA DE SOUSA MOREIRA                                                  0010076                    0211197401111000000001503176000000000000000    000000000000000000000000000000000000000000000000000000000000                                                                                                  *
30150520121000132               190472490220506201720NIVEO MARCIO DE ARAUJO CRUZ LOURENCO                                      0044584                    0407198701421000000000731785000000000000000    000000000000000000000000000000000000000000000000000000000000                                                                                                  *
30150520121000132               190497618550506201720ANDRE LUIZ DE RAMOS COSTA                                                 0044586                    0204198601421000000000395147000000000000000    000000000000000000000000000000000000000000000000000000000000                                                                                                  *
30150520121000132               190555945070506201720CLEMER BATISTA MENDES                                                     0044600                    0303199704110000000000395693000000000000000    000000000000000000000000000000000000000000000000000000000000                                                                                                  *
30150520121000132               190578429070506201720GUSTAVO KENJI DE CARVALHO MORI                                            0044652                    1003199504110000000000339165000000000000000    000000000000000000000000000000000000000000000000000000000000                                                                                                  *
30150520121000132               190589703801610201720NATALIA DE BRITO TOLEDO                                                   0044724                    1605198901421000000000395147000000000000000    000000000000000000000000000000000000000000000000000000000000                                                                                                  *
30150520121000132               190607032030205201820MARCOS BONFIM XAVIER                                                      0044756                    0410199304110000000000339165000000000000000    000000000000000000000000000000000000000000000000000000000000                                                                                                  *
30150520121000132               190607159960506201720BARBARA WILLIANS AGUIAR RAFAEL DA SILVA                                   0044570                    2006198501421000000000548813000000000000000    000000000000000000000000000000000000000000000000000000000000                                                                                                  *
30150520121000132               190614504140102201920BRUNO NEVES DA SILVA                                                      0044803                    2501199301421000000000373194000000000000000    000000000000000000000000000000000000000000000000000000000000                                                                                                  *
30150520121000132               200306073071406201720DIEGO DE JESUS                                                            0044685                    1302198504110000000000356123000000000000000    000000000000000000000000000000000000000000000000000000000000                                                                                                  *
30150520121000132               203066904910506201720FLAVIO PEREIRA DOS PASSOS                                                 0044552                    1204198404110000000000339165000000000000000    000000000000000000000000000000000000000000000000000000000000                                                                                                  *
30150520121000132               203069519880506201720GISLENE APARECIDA DOS SANTOS                                              0044610                    1703197804101000000000768374000000000000000    000000000000000000000000000000000000000000000000000000000000                                                                                                  *
30150520121000132               203072916040506201720JESSICA CARLA DE OLIVEIRA                                                 0044611                    0810198004110000000000339165000000000000000    000000000000000000000000000000000000000000000000000000000000                                                                                                  *
30150520121000132               204931982232103201920LUIZ HENRIQUE DA SILVA                                                    0044814                    1706199104110000000000113055000000000000000    000000000000000000000000000000000000000000000000000000000000                                                                                                  *
30150520121000132               204932092920506201720FABIANA ALVES DE ANDRADE                                                  0044594                    1701198901421000000000576254000000000000000    000000000000000000000000000000000000000000000000000000000000                                                                                                  *
30150520121000132               204932943890506201720MAYSA DA SILVA COSTA                                                      0044583                    1310199404110000000000684919000000000000000    000000000000000000000000000000000000000000000000000000000000                                                                                                  *
30150520121000132               204933935220305201720ETELVINA MENDES DA SILVA                                                  0044529                    2806199101421000000000475638000000000137203    000000000000000000000000000000000000000137203000000000000000                                                                                                  *
32150520121000132               204933935220305201720ETELVINA MENDES DA SILVA                                              I126032019N                                                                                                                                                                                                                                 *
30150520121000132               206010429930506201720LEANDRO FERNANDO VITOR                                                    0044556                    1707198304110000000000565058000000000000000    000000000000000000000000000000000000000000000000000000000000                                                                                                  *
30150520121000132               207246294610506201720ANDERSON GONCALVES DA PAIXAO                                              0044578                    1803198804101000000000731785000000000000000    000000000000000000000000000000000000000000000000000000000000                                                                                                  *
30150520121000132               207784403080506201720MAIRA ALVES CARNEIRO                                                      0044641                    0612198901421000000000576254000000000000000    000000000000000000000000000000000000000000000000000000000000                                                                                                  *
30150520121000132               207821931660911201720RONIELSON ALVES DA SILVA                                                  0044729                    2803199404110000000000339165000000000000000    000000000000000000000000000000000000000000000000000000000000                                                                                                  *
30150520121000132               209006629420506201720PATRICIA JENEYRE DE MORAIS MOURA                                          0044548                    2906197904110000000000203499000000000084791    000000000000000000000000000000000000000084791000000000000000                                                                                                  *
32150520121000132               209006629420506201720PATRICIA JENEYRE DE MORAIS MOURA                                      I118032019N                                                                                                                                                                                                                                 *
30150520121000132               209012631700401201820RODOLFO ALBERTO DA SILVA                                                  0044736                    2810198304110000000000339165000000000000000    000000000000000000000000000000000000000000000000000000000000                                                                                                  *
30150520121000132               209018780780506201720VITOR HUGO ALVES                                                          0044623                    1712199204110000000000339165000000000000000    000000000000000000000000000000000000000000000000000000000000                                                                                                  *
30150520121000132               209345725711211201820JORGE AUGUSTO CARVALHO DOS SANTOS                                         0044790                    1209198304110000000000339165000000000000000    000000000000000000000000000000000000000000000000000000000000                                                                                                  *
30150520121000132               212895878861204201820LUCAS NUNES DE ALMEIDA                                                    0044751                    1605199504110000000000513689000000000000000    000000000000000000000000000000000000000000000000000000000000                                                                                                  *
90999999999999999999999999999999999999999999999999999                                                                                                                                                                                                                                                                                                                  *